{
  "_format": "hh-sol-artifact-1",
  "contractName": "MyEpicNFT",
  "sourceName": "contracts/MyEpicNFT.sol",
  "abi": [
    {
      "inputs": [],
      "stateMutability": "nonpayable",
      "type": "constructor"
    },
    {
      "anonymous": false,
      "inputs": [
        {
          "indexed": true,
          "internalType": "address",
          "name": "owner",
          "type": "address"
        },
        {
          "indexed": true,
          "internalType": "address",
          "name": "approved",
          "type": "address"
        },
        {
          "indexed": true,
          "internalType": "uint256",
          "name": "tokenId",
          "type": "uint256"
        }
      ],
      "name": "Approval",
      "type": "event"
    },
    {
      "anonymous": false,
      "inputs": [
        {
          "indexed": true,
          "internalType": "address",
          "name": "owner",
          "type": "address"
        },
        {
          "indexed": true,
          "internalType": "address",
          "name": "operator",
          "type": "address"
        },
        {
          "indexed": false,
          "internalType": "bool",
          "name": "approved",
          "type": "bool"
        }
      ],
      "name": "ApprovalForAll",
      "type": "event"
    },
    {
      "anonymous": false,
      "inputs": [
        {
          "indexed": false,
          "internalType": "address",
          "name": "sender",
          "type": "address"
        },
        {
          "indexed": false,
          "internalType": "uint256",
          "name": "tokenId",
          "type": "uint256"
        },
        {
          "indexed": false,
          "internalType": "uint256",
          "name": "totalNFTsMintedSoFar",
          "type": "uint256"
        }
      ],
      "name": "NewEpicNFTMinted",
      "type": "event"
    },
    {
      "anonymous": false,
      "inputs": [
        {
          "indexed": true,
          "internalType": "address",
          "name": "from",
          "type": "address"
        },
        {
          "indexed": true,
          "internalType": "address",
          "name": "to",
          "type": "address"
        },
        {
          "indexed": true,
          "internalType": "uint256",
          "name": "tokenId",
          "type": "uint256"
        }
      ],
      "name": "Transfer",
      "type": "event"
    },
    {
      "inputs": [
        {
          "internalType": "address",
          "name": "to",
          "type": "address"
        },
        {
          "internalType": "uint256",
          "name": "tokenId",
          "type": "uint256"
        }
      ],
      "name": "approve",
      "outputs": [],
      "stateMutability": "nonpayable",
      "type": "function"
    },
    {
      "inputs": [
        {
          "internalType": "address",
          "name": "owner",
          "type": "address"
        }
      ],
      "name": "balanceOf",
      "outputs": [
        {
          "internalType": "uint256",
          "name": "",
          "type": "uint256"
        }
      ],
      "stateMutability": "view",
      "type": "function"
    },
    {
      "inputs": [
        {
          "internalType": "uint256",
          "name": "tokenId",
          "type": "uint256"
        }
      ],
      "name": "getApproved",
      "outputs": [
        {
          "internalType": "address",
          "name": "",
          "type": "address"
        }
      ],
      "stateMutability": "view",
      "type": "function"
    },
    {
      "inputs": [],
      "name": "getNFTsStats",
      "outputs": [
        {
          "internalType": "uint256",
          "name": "current",
          "type": "uint256"
        },
        {
          "internalType": "uint256",
          "name": "max",
          "type": "uint256"
        }
      ],
      "stateMutability": "view",
      "type": "function"
    },
    {
      "inputs": [
        {
          "internalType": "address",
          "name": "owner",
          "type": "address"
        },
        {
          "internalType": "address",
          "name": "operator",
          "type": "address"
        }
      ],
      "name": "isApprovedForAll",
      "outputs": [
        {
          "internalType": "bool",
          "name": "",
          "type": "bool"
        }
      ],
      "stateMutability": "view",
      "type": "function"
    },
    {
      "inputs": [],
      "name": "makeAnEpicNFT",
      "outputs": [],
      "stateMutability": "nonpayable",
      "type": "function"
    },
    {
      "inputs": [],
      "name": "name",
      "outputs": [
        {
          "internalType": "string",
          "name": "",
          "type": "string"
        }
      ],
      "stateMutability": "view",
      "type": "function"
    },
    {
      "inputs": [
        {
          "internalType": "uint256",
          "name": "tokenId",
          "type": "uint256"
        }
      ],
      "name": "ownerOf",
      "outputs": [
        {
          "internalType": "address",
          "name": "",
          "type": "address"
        }
      ],
      "stateMutability": "view",
      "type": "function"
    },
    {
      "inputs": [
        {
          "internalType": "uint256",
          "name": "tokenId",
          "type": "uint256"
        }
      ],
      "name": "pickRandomClub",
      "outputs": [
        {
          "internalType": "string",
          "name": "club",
          "type": "string"
        },
        {
          "internalType": "string",
          "name": "color",
          "type": "string"
        }
      ],
      "stateMutability": "view",
      "type": "function"
    },
    {
      "inputs": [
        {
          "internalType": "address",
          "name": "from",
          "type": "address"
        },
        {
          "internalType": "address",
          "name": "to",
          "type": "address"
        },
        {
          "internalType": "uint256",
          "name": "tokenId",
          "type": "uint256"
        }
      ],
      "name": "safeTransferFrom",
      "outputs": [],
      "stateMutability": "nonpayable",
      "type": "function"
    },
    {
      "inputs": [
        {
          "internalType": "address",
          "name": "from",
          "type": "address"
        },
        {
          "internalType": "address",
          "name": "to",
          "type": "address"
        },
        {
          "internalType": "uint256",
          "name": "tokenId",
          "type": "uint256"
        },
        {
          "internalType": "bytes",
          "name": "_data",
          "type": "bytes"
        }
      ],
      "name": "safeTransferFrom",
      "outputs": [],
      "stateMutability": "nonpayable",
      "type": "function"
    },
    {
      "inputs": [
        {
          "internalType": "address",
          "name": "operator",
          "type": "address"
        },
        {
          "internalType": "bool",
          "name": "approved",
          "type": "bool"
        }
      ],
      "name": "setApprovalForAll",
      "outputs": [],
      "stateMutability": "nonpayable",
      "type": "function"
    },
    {
      "inputs": [
        {
          "internalType": "bytes4",
          "name": "interfaceId",
          "type": "bytes4"
        }
      ],
      "name": "supportsInterface",
      "outputs": [
        {
          "internalType": "bool",
          "name": "",
          "type": "bool"
        }
      ],
      "stateMutability": "view",
      "type": "function"
    },
    {
      "inputs": [],
      "name": "symbol",
      "outputs": [
        {
          "internalType": "string",
          "name": "",
          "type": "string"
        }
      ],
      "stateMutability": "view",
      "type": "function"
    },
    {
      "inputs": [
        {
          "internalType": "uint256",
          "name": "tokenId",
          "type": "uint256"
        }
      ],
      "name": "tokenURI",
      "outputs": [
        {
          "internalType": "string",
          "name": "",
          "type": "string"
        }
      ],
      "stateMutability": "view",
      "type": "function"
    },
    {
      "inputs": [
        {
          "internalType": "address",
          "name": "from",
          "type": "address"
        },
        {
          "internalType": "address",
          "name": "to",
          "type": "address"
        },
        {
          "internalType": "uint256",
          "name": "tokenId",
          "type": "uint256"
        }
      ],
      "name": "transferFrom",
      "outputs": [],
      "stateMutability": "nonpayable",
      "type": "function"
    }
  ],
  "bytecode": "0x6080604052603260085560405180610100016040528060d381526020016200479660d39139600990805190602001906200003b92919062000f30565b506040518060800160405280605681526020016200486960569139600a90805190602001906200006d92919062000f30565b50604051806103c001604052806040518060400160405280600781526020017f236363303033330000000000000000000000000000000000000000000000000081525081526020016040518060400160405280600781526020017f233938633565390000000000000000000000000000000000000000000000000081525081526020016040518060400160405280600781526020017f236433313731650000000000000000000000000000000000000000000000000081525081526020016040518060400160405280600781526020017f233061343539350000000000000000000000000000000000000000000000000081525081526020016040518060400160405280600781526020017f236134303034370000000000000000000000000000000000000000000000000081525081526020016040518060400160405280600781526020017f233161326234630000000000000000000000000000000000000000000000000081525081526020016040518060400160405280600781526020017f233030353139650000000000000000000000000000000000000000000000000081525081526020016040518060400160405280600781526020017f233237323732370000000000000000000000000000000000000000000000000081525081526020016040518060400160405280600781526020017f236432303232320000000000000000000000000000000000000000000000000081525081526020016040518060400160405280600781526020017f236562316134370000000000000000000000000000000000000000000000000081525081526020016040518060400160405280600781526020017f236339323832640000000000000000000000000000000000000000000000000081525081526020016040518060400160405280600781526020017f236137316433360000000000000000000000000000000000000000000000000081525081526020016040518060400160405280600781526020017f233066323034620000000000000000000000000000000000000000000000000081525081526020016040518060400160405280600781526020017f236666303030300000000000000000000000000000000000000000000000000081525081526020016040518060400160405280600781526020017f233030393964640000000000000000000000000000000000000000000000000081525081526020016040518060400160405280600781526020017f233230323132340000000000000000000000000000000000000000000000000081525081526020016040518060400160405280600781526020017f236335303331620000000000000000000000000000000000000000000000000081525081526020016040518060400160405280600781526020017f236634356231610000000000000000000000000000000000000000000000000081525081526020016040518060400160405280600781526020017f236263303530350000000000000000000000000000000000000000000000000081525081526020016040518060400160405280600781526020017f236664303030300000000000000000000000000000000000000000000000000081525081526020016040518060400160405280600781526020017f233030354641420000000000000000000000000000000000000000000000000081525081526020016040518060400160405280600781526020017f233031314636380000000000000000000000000000000000000000000000000081525081526020016040518060400160405280600781526020017f233031314636380000000000000000000000000000000000000000000000000081525081526020016040518060400160405280600781526020017f233031314636380000000000000000000000000000000000000000000000000081525081526020016040518060400160405280600781526020017f233031314636380000000000000000000000000000000000000000000000000081525081526020016040518060400160405280600781526020017f236330303030310000000000000000000000000000000000000000000000000081525081526020016040518060400160405280600781526020017f236363303030300000000000000000000000000000000000000000000000000081525081526020016040518060400160405280600781526020017f233630423845320000000000000000000000000000000000000000000000000081525081526020016040518060400160405280600781526020017f233030353033390000000000000000000000000000000000000000000000000081525081526020016040518060400160405280600781526020017f2333333735423300000000000000000000000000000000000000000000000000815250815250600b90601e6200077492919062000fc1565b50604051806103c001604052806040518060400160405280601181526020017f46432042617965726e204d756e6368656e00000000000000000000000000000081525081526020016040518060400160405280601281526020017f4d616e636865737465722043697479204643000000000000000000000000000081525081526020016040518060400160405280600c81526020017f4c69766572706f6f6c204643000000000000000000000000000000000000000081525081526020016040518060400160405280600a81526020017f4368656c7365612046430000000000000000000000000000000000000000000081525081526020016040518060400160405280600c81526020017f46432042617263656c6f6e61000000000000000000000000000000000000000081525081526020016040518060400160405280601381526020017f5061726973205361696e742d4765726d61696e0000000000000000000000000081525081526020016040518060400160405280600e81526020017f5265616c204d616472696420434600000000000000000000000000000000000081525081526020016040518060400160405280600881526020017f4a7576656e74757300000000000000000000000000000000000000000000000081525081526020016040518060400160405280601181526020017f4d616e6368657374657220556e6974656400000000000000000000000000000081525081526020016040518060400160405280601781526020017f436c75622041746c657469636f206465204d616472696400000000000000000081525081526020016040518060400160405280600a81526020017f536576696c6c612046430000000000000000000000000000000000000000000081525081526020016040518060400160405280600781526020017f415320526f6d610000000000000000000000000000000000000000000000000081525081526020016040518060400160405280601181526020017f546f7474656e68616d20486f747370757200000000000000000000000000000081525081526020016040518060400160405280600a81526020017f417273656e616c2046430000000000000000000000000000000000000000000081525081526020016040518060400160405280600881526020017f464320506f72746f00000000000000000000000000000000000000000000000081525081526020016040518060400160405280601181526020017f426f72757373696120446f72746d756e6400000000000000000000000000000081525081526020016040518060400160405280600881526020017f41464320416a617800000000000000000000000000000000000000000000000081525081526020016040518060400160405280601381526020017f4643205368616b6874617220446f6e6574736b0000000000000000000000000081525081526020016040518060400160405280600a81526020017f5242204c6569707a69670000000000000000000000000000000000000000000081525081526020016040518060400160405280600b81526020017f46432053616c7a6275726700000000000000000000000000000000000000000081525081526020016040518060400160405280600d81526020017f56696c6c61727265616c2043460000000000000000000000000000000000000081525081526020016040518060400160405280601281526020017f4f6c796d7069717565204c796f6e6e616973000000000000000000000000000081525081526020016040518060400160405280600a81526020017f535343204e61706f6c690000000000000000000000000000000000000000000081525081526020016040518060400160405280600b81526020017f4174616c616e746120424300000000000000000000000000000000000000000081525081526020016040518060400160405280601881526020017f464320496e7465726e617a696f6e616c65204d696c616e6f000000000000000081525081526020016040518060400160405280600a81526020017f534c2042656e666963610000000000000000000000000000000000000000000081525081526020016040518060400160405280600d81526020017f464320426173656c20313839330000000000000000000000000000000000000081525081526020016040518060400160405280600881526020017f5353204c617a696f00000000000000000000000000000000000000000000000081525081526020016040518060400160405280601a81526020017f53706f7274696e6720436c75626520646520506f72747567616c00000000000081525081526020016040518060400160405280600881526020017f4643205a656e6974000000000000000000000000000000000000000000000000815250815250600c90601e62000e7b92919062000fc1565b5034801562000e8957600080fd5b506040518060400160405280600881526020017f436c7562734e46540000000000000000000000000000000000000000000000008152506040518060400160405280600581526020017f434c554253000000000000000000000000000000000000000000000000000000815250816000908051906020019062000f0e92919062000f30565b50806001908051906020019062000f2792919062000f30565b5050506200111a565b82805462000f3e90620010b5565b90600052602060002090601f01602090048101928262000f62576000855562000fae565b82601f1062000f7d57805160ff191683800117855562000fae565b8280016001018555821562000fae579182015b8281111562000fad57825182559160200191906001019062000f90565b5b50905062000fbd919062001028565b5090565b82805482825590600052602060002090810192821562001015579160200282015b82811115620010145782518290805190602001906200100392919062000f30565b509160200191906001019062000fe2565b5b50905062001024919062001047565b5090565b5b808211156200104357600081600090555060010162001029565b5090565b5b808211156200106b57600081816200106191906200106f565b5060010162001048565b5090565b5080546200107d90620010b5565b6000825580601f10620010915750620010b2565b601f016020900490600052602060002090810190620010b1919062001028565b5b50565b60006002820490506001821680620010ce57607f821691505b60208210811415620010e557620010e4620010eb565b5b50919050565b7f4e487b7100000000000000000000000000000000000000000000000000000000600052602260045260246000fd5b61366c806200112a6000396000f3fe608060405234801561001057600080fd5b50600436106101005760003560e01c806370a0823111610097578063b88d4fde11610066578063b88d4fde146102c1578063c87b56dd146102dd578063de9d132f1461030d578063e985e9c51461031757610100565b806370a082311461022657806391007bb01461025657806395d89b4114610287578063a22cb465146102a557610100565b8063095ea7b3116100d3578063095ea7b3146101a257806323b872dd146101be57806342842e0e146101da5780636352211e146101f657610100565b806301ffc9a714610105578063032cf5ed1461013557806306fdde0314610154578063081812fc14610172575b600080fd5b61011f600480360381019061011a919061230d565b610347565b60405161012c9190612e62565b60405180910390f35b61013d610429565b60405161014b92919061313d565b60405180910390f35b61015c610441565b6040516101699190612e7d565b60405180910390f35b61018c6004803603810190610187919061235f565b6104d3565b6040516101999190612dc4565b60405180910390f35b6101bc60048036038101906101b791906122d1565b610558565b005b6101d860048036038101906101d391906121cb565b610670565b005b6101f460048036038101906101ef91906121cb565b6106d0565b005b610210600480360381019061020b919061235f565b6106f0565b60405161021d9190612dc4565b60405180910390f35b610240600480360381019061023b9190612166565b6107a2565b60405161024d9190613122565b60405180910390f35b610270600480360381019061026b919061235f565b61085a565b60405161027e929190612e9f565b60405180910390f35b61028f610a4e565b60405161029c9190612e7d565b60405180910390f35b6102bf60048036038101906102ba9190612295565b610ae0565b005b6102db60048036038101906102d6919061221a565b610c61565b005b6102f760048036038101906102f2919061235f565b610cc3565b6040516103049190612e7d565b60405180910390f35b610315610e15565b005b610331600480360381019061032c919061218f565b610fe3565b60405161033e9190612e62565b60405180910390f35b60007f80ac58cd000000000000000000000000000000000000000000000000000000007bffffffffffffffffffffffffffffffffffffffffffffffffffffffff1916827bffffffffffffffffffffffffffffffffffffffffffffffffffffffff1916148061041257507f5b5e139f000000000000000000000000000000000000000000000000000000007bffffffffffffffffffffffffffffffffffffffffffffffffffffffff1916827bffffffffffffffffffffffffffffffffffffffffffffffffffffffff1916145b80610422575061042182611077565b5b9050919050565b60008061043660076110e1565b600854915091509091565b606060008054610450906133ea565b80601f016020809104026020016040519081016040528092919081815260200182805461047c906133ea565b80156104c95780601f1061049e576101008083540402835291602001916104c9565b820191906000526020600020905b8154815290600101906020018083116104ac57829003601f168201915b5050505050905090565b60006104de826110ef565b61051d576040517f08c379a000000000000000000000000000000000000000000000000000000000815260040161051490613082565b60405180910390fd5b6004600083815260200190815260200160002060009054906101000a900473ffffffffffffffffffffffffffffffffffffffff169050919050565b6000610563826106f0565b90508073ffffffffffffffffffffffffffffffffffffffff168373ffffffffffffffffffffffffffffffffffffffff1614156105d4576040517f08c379a00000000000000000000000000000000000000000000000000000000081526004016105cb906130e2565b60405180910390fd5b8073ffffffffffffffffffffffffffffffffffffffff166105f361115b565b73ffffffffffffffffffffffffffffffffffffffff16148061062257506106218161061c61115b565b610fe3565b5b610661576040517f08c379a000000000000000000000000000000000000000000000000000000000815260040161065890612fc2565b60405180910390fd5b61066b8383611163565b505050565b61068161067b61115b565b8261121c565b6106c0576040517f08c379a00000000000000000000000000000000000000000000000000000000081526004016106b790613102565b60405180910390fd5b6106cb8383836112fa565b505050565b6106eb83838360405180602001604052806000815250610c61565b505050565b6000806002600084815260200190815260200160002060009054906101000a900473ffffffffffffffffffffffffffffffffffffffff169050600073ffffffffffffffffffffffffffffffffffffffff168173ffffffffffffffffffffffffffffffffffffffff161415610799576040517f08c379a000000000000000000000000000000000000000000000000000000000815260040161079090613002565b60405180910390fd5b80915050919050565b60008073ffffffffffffffffffffffffffffffffffffffff168273ffffffffffffffffffffffffffffffffffffffff161415610813576040517f08c379a000000000000000000000000000000000000000000000000000000000815260040161080a90612fe2565b60405180910390fd5b600360008373ffffffffffffffffffffffffffffffffffffffff1673ffffffffffffffffffffffffffffffffffffffff168152602001908152602001600020549050919050565b606080600061088f61086b85611556565b60405160200161087b9190612d3b565b604051602081830303815290604052611703565b9050600c80549050816108a29190613465565b9050600c81815481106108de577f4e487b7100000000000000000000000000000000000000000000000000000000600052603260045260246000fd5b90600052602060002001600b8281548110610922577f4e487b7100000000000000000000000000000000000000000000000000000000600052603260045260246000fd5b90600052602060002001818054610938906133ea565b80601f0160208091040260200160405190810160405280929190818152602001828054610964906133ea565b80156109b15780601f10610986576101008083540402835291602001916109b1565b820191906000526020600020905b81548152906001019060200180831161099457829003601f168201915b505050505091508080546109c4906133ea565b80601f01602080910402602001604051908101604052809291908181526020018280546109f0906133ea565b8015610a3d5780601f10610a1257610100808354040283529160200191610a3d565b820191906000526020600020905b815481529060010190602001808311610a2057829003601f168201915b505050505090509250925050915091565b606060018054610a5d906133ea565b80601f0160208091040260200160405190810160405280929190818152602001828054610a89906133ea565b8015610ad65780601f10610aab57610100808354040283529160200191610ad6565b820191906000526020600020905b815481529060010190602001808311610ab957829003601f168201915b5050505050905090565b610ae861115b565b73ffffffffffffffffffffffffffffffffffffffff168273ffffffffffffffffffffffffffffffffffffffff161415610b56576040517f08c379a0000000000000000000000000000000000000000000000000000000008152600401610b4d90612f82565b60405180910390fd5b8060056000610b6361115b565b73ffffffffffffffffffffffffffffffffffffffff1673ffffffffffffffffffffffffffffffffffffffff16815260200190815260200160002060008473ffffffffffffffffffffffffffffffffffffffff1673ffffffffffffffffffffffffffffffffffffffff16815260200190815260200160002060006101000a81548160ff0219169083151502179055508173ffffffffffffffffffffffffffffffffffffffff16610c1061115b565b73ffffffffffffffffffffffffffffffffffffffff167f17307eab39ab6107e8899845ad3d59bd9653f200f220920489ca2b5937696c3183604051610c559190612e62565b60405180910390a35050565b610c72610c6c61115b565b8361121c565b610cb1576040517f08c379a0000000000000000000000000000000000000000000000000000000008152600401610ca890613102565b60405180910390fd5b610cbd84848484611736565b50505050565b6060610cce826110ef565b610d0d576040517f08c379a0000000000000000000000000000000000000000000000000000000008152600401610d0490613062565b60405180910390fd5b6000600660008481526020019081526020016000208054610d2d906133ea565b80601f0160208091040260200160405190810160405280929190818152602001828054610d59906133ea565b8015610da65780601f10610d7b57610100808354040283529160200191610da6565b820191906000526020600020905b815481529060010190602001808311610d8957829003601f168201915b505050505090506000610db7611792565b9050600081511415610dcd578192505050610e10565b600082511115610e02578082604051602001610dea929190612cce565b60405160208183030381529060405292505050610e10565b610e0b846117a9565b925050505b919050565b6000610e2160076110e1565b90506008548110610e3157600080fd5b600080610e3d8361085a565b915091506000600982600a85604051602001610e5c9493929190612cf2565b60405160208183030381529060405290506000610ea184610e7c84611850565b604051602001610e8d929190612d5d565b604051602081830303815290604052611850565b9050600081604051602001610eb69190612da2565b6040516020818303038152906040529050610f056040518060400160405280601581526020017f0a2d2d2d2d2d2d2d2d2d2d2d2d2d2d2d2d2d2d2d2d0000000000000000000000815250611a0e565b610f0e83611a0e565b610f4c6040518060400160405280601581526020017f2d2d2d2d2d2d2d2d2d2d2d2d2d2d2d2d2d2d2d2d0a0000000000000000000000815250611a0e565b610f563387611aa7565b610f608682611ac5565b610f6a6007611b39565b7f9e9e101732de0887d722bd72c01c5439edc857c9c2c763953d67e66de12441d33387610f9760076110e1565b604051610fa693929190612e2b565b60405180910390a1610fdb604051806060016040528060378152602001613600603791398733610fd660076110e1565b611b4f565b505050505050565b6000600560008473ffffffffffffffffffffffffffffffffffffffff1673ffffffffffffffffffffffffffffffffffffffff16815260200190815260200160002060008373ffffffffffffffffffffffffffffffffffffffff1673ffffffffffffffffffffffffffffffffffffffff16815260200190815260200160002060009054906101000a900460ff16905092915050565b60007f01ffc9a7000000000000000000000000000000000000000000000000000000007bffffffffffffffffffffffffffffffffffffffffffffffffffffffff1916827bffffffffffffffffffffffffffffffffffffffffffffffffffffffff1916149050919050565b600081600001549050919050565b60008073ffffffffffffffffffffffffffffffffffffffff166002600084815260200190815260200160002060009054906101000a900473ffffffffffffffffffffffffffffffffffffffff1673ffffffffffffffffffffffffffffffffffffffff1614159050919050565b600033905090565b816004600083815260200190815260200160002060006101000a81548173ffffffffffffffffffffffffffffffffffffffff021916908373ffffffffffffffffffffffffffffffffffffffff160217905550808273ffffffffffffffffffffffffffffffffffffffff166111d6836106f0565b73ffffffffffffffffffffffffffffffffffffffff167f8c5be1e5ebec7d5bd14f71427d1e84f3dd0314c0f7b2291e5b200ac8c7c3b92560405160405180910390a45050565b6000611227826110ef565b611266576040517f08c379a000000000000000000000000000000000000000000000000000000000815260040161125d90612fa2565b60405180910390fd5b6000611271836106f0565b90508073ffffffffffffffffffffffffffffffffffffffff168473ffffffffffffffffffffffffffffffffffffffff1614806112e057508373ffffffffffffffffffffffffffffffffffffffff166112c8846104d3565b73ffffffffffffffffffffffffffffffffffffffff16145b806112f157506112f08185610fe3565b5b91505092915050565b8273ffffffffffffffffffffffffffffffffffffffff1661131a826106f0565b73ffffffffffffffffffffffffffffffffffffffff1614611370576040517f08c379a0000000000000000000000000000000000000000000000000000000008152600401611367906130a2565b60405180910390fd5b600073ffffffffffffffffffffffffffffffffffffffff168273ffffffffffffffffffffffffffffffffffffffff1614156113e0576040517f08c379a00000000000000000000000000000000000000000000000000000000081526004016113d790612f62565b60405180910390fd5b6113eb838383611bf1565b6113f6600082611163565b6001600360008573ffffffffffffffffffffffffffffffffffffffff1673ffffffffffffffffffffffffffffffffffffffff16815260200190815260200160002060008282546114469190613300565b925050819055506001600360008473ffffffffffffffffffffffffffffffffffffffff1673ffffffffffffffffffffffffffffffffffffffff168152602001908152602001600020600082825461149d919061321f565b92505081905550816002600083815260200190815260200160002060006101000a81548173ffffffffffffffffffffffffffffffffffffffff021916908373ffffffffffffffffffffffffffffffffffffffff160217905550808273ffffffffffffffffffffffffffffffffffffffff168473ffffffffffffffffffffffffffffffffffffffff167fddf252ad1be2c89b69c2b068fc378daa952ba7f163c4a11628f55a4df523b3ef60405160405180910390a4505050565b6060600082141561159e576040518060400160405280600181526020017f300000000000000000000000000000000000000000000000000000000000000081525090506116fe565b600082905060005b600082146115d05780806115b99061341c565b915050600a826115c99190613275565b91506115a6565b60008167ffffffffffffffff811115611612577f4e487b7100000000000000000000000000000000000000000000000000000000600052604160045260246000fd5b6040519080825280601f01601f1916602001820160405280156116445781602001600182028036833780820191505090505b5090505b600085146116f75760018261165d9190613300565b9150600a8561166c9190613465565b6030611678919061321f565b60f81b8183815181106116b4577f4e487b7100000000000000000000000000000000000000000000000000000000600052603260045260246000fd5b60200101907effffffffffffffffffffffffffffffffffffffffffffffffffffffffffffff1916908160001a905350600a856116f09190613275565b9450611648565b8093505050505b919050565b6000816040516020016117169190612cb7565b6040516020818303038152906040528051906020012060001c9050919050565b6117418484846112fa565b61174d84848484611bf6565b61178c576040517f08c379a000000000000000000000000000000000000000000000000000000000815260040161178390612f22565b60405180910390fd5b50505050565b606060405180602001604052806000815250905090565b60606117b4826110ef565b6117f3576040517f08c379a00000000000000000000000000000000000000000000000000000000081526004016117ea906130c2565b60405180910390fd5b60006117fd611792565b9050600081511161181d5760405180602001604052806000815250611848565b8061182784611556565b604051602001611838929190612cce565b6040516020818303038152906040525b915050919050565b606060008251905060008114156118795760405180602001604052806000815250915050611a09565b6000600360028361188a919061321f565b6118949190613275565b60046118a091906132a6565b905060006020826118b1919061321f565b67ffffffffffffffff8111156118f0577f4e487b7100000000000000000000000000000000000000000000000000000000600052604160045260246000fd5b6040519080825280601f01601f1916602001820160405280156119225781602001600182028036833780820191505090505b50905060006040518060600160405280604081526020016135c0604091399050600181016020830160005b868110156119c65760038101905062ffffff818a015116603f8160121c168401518060081b905060ff603f83600c1c1686015116810190508060081b905060ff603f8360061c1686015116810190508060081b905060ff603f831686015116810190508060e01b9050808452600484019350505061194d565b5060038606600181146119e057600281146119f0576119fb565b613d3d60f01b60028303526119fb565b603d60f81b60018303525b508484525050819450505050505b919050565b611aa481604051602401611a229190612e7d565b6040516020818303038152906040527f41304fac000000000000000000000000000000000000000000000000000000007bffffffffffffffffffffffffffffffffffffffffffffffffffffffff19166020820180517bffffffffffffffffffffffffffffffffffffffffffffffffffffffff8381831617835250505050611d8d565b50565b611ac1828260405180602001604052806000815250611db6565b5050565b611ace826110ef565b611b0d576040517f08c379a0000000000000000000000000000000000000000000000000000000008152600401611b0490613022565b60405180910390fd5b80600660008481526020019081526020016000209080519060200190611b34929190611ff2565b505050565b6001816000016000828254019250508190555050565b611beb84848484604051602401611b699493929190612ed6565b6040516020818303038152906040527f58497afe000000000000000000000000000000000000000000000000000000007bffffffffffffffffffffffffffffffffffffffffffffffffffffffff19166020820180517bffffffffffffffffffffffffffffffffffffffffffffffffffffffff8381831617835250505050611d8d565b50505050565b505050565b6000611c178473ffffffffffffffffffffffffffffffffffffffff16611e11565b15611d80578373ffffffffffffffffffffffffffffffffffffffff1663150b7a02611c4061115b565b8786866040518563ffffffff1660e01b8152600401611c629493929190612ddf565b602060405180830381600087803b158015611c7c57600080fd5b505af1925050508015611cad57506040513d601f19601f82011682018060405250810190611caa9190612336565b60015b611d30573d8060008114611cdd576040519150601f19603f3d011682016040523d82523d6000602084013e611ce2565b606091505b50600081511415611d28576040517f08c379a0000000000000000000000000000000000000000000000000000000008152600401611d1f90612f22565b60405180910390fd5b805181602001fd5b63150b7a0260e01b7bffffffffffffffffffffffffffffffffffffffffffffffffffffffff1916817bffffffffffffffffffffffffffffffffffffffffffffffffffffffff191614915050611d85565b600190505b949350505050565b60008151905060006a636f6e736f6c652e6c6f679050602083016000808483855afa5050505050565b611dc08383611e24565b611dcd6000848484611bf6565b611e0c576040517f08c379a0000000000000000000000000000000000000000000000000000000008152600401611e0390612f22565b60405180910390fd5b505050565b600080823b905060008111915050919050565b600073ffffffffffffffffffffffffffffffffffffffff168273ffffffffffffffffffffffffffffffffffffffff161415611e94576040517f08c379a0000000000000000000000000000000000000000000000000000000008152600401611e8b90613042565b60405180910390fd5b611e9d816110ef565b15611edd576040517f08c379a0000000000000000000000000000000000000000000000000000000008152600401611ed490612f42565b60405180910390fd5b611ee960008383611bf1565b6001600360008473ffffffffffffffffffffffffffffffffffffffff1673ffffffffffffffffffffffffffffffffffffffff1681526020019081526020016000206000828254611f39919061321f565b92505081905550816002600083815260200190815260200160002060006101000a81548173ffffffffffffffffffffffffffffffffffffffff021916908373ffffffffffffffffffffffffffffffffffffffff160217905550808273ffffffffffffffffffffffffffffffffffffffff16600073ffffffffffffffffffffffffffffffffffffffff167fddf252ad1be2c89b69c2b068fc378daa952ba7f163c4a11628f55a4df523b3ef60405160405180910390a45050565b828054611ffe906133ea565b90600052602060002090601f0160209004810192826120205760008555612067565b82601f1061203957805160ff1916838001178555612067565b82800160010185558215612067579182015b8281111561206657825182559160200191906001019061204b565b5b5090506120749190612078565b5090565b5b80821115612091576000816000905550600101612079565b5090565b60006120a86120a384613197565b613166565b9050828152602081018484840111156120c057600080fd5b6120cb8482856133a8565b509392505050565b6000813590506120e281613563565b92915050565b6000813590506120f78161357a565b92915050565b60008135905061210c81613591565b92915050565b60008151905061212181613591565b92915050565b600082601f83011261213857600080fd5b8135612148848260208601612095565b91505092915050565b600081359050612160816135a8565b92915050565b60006020828403121561217857600080fd5b6000612186848285016120d3565b91505092915050565b600080604083850312156121a257600080fd5b60006121b0858286016120d3565b92505060206121c1858286016120d3565b9150509250929050565b6000806000606084860312156121e057600080fd5b60006121ee868287016120d3565b93505060206121ff868287016120d3565b925050604061221086828701612151565b9150509250925092565b6000806000806080858703121561223057600080fd5b600061223e878288016120d3565b945050602061224f878288016120d3565b935050604061226087828801612151565b925050606085013567ffffffffffffffff81111561227d57600080fd5b61228987828801612127565b91505092959194509250565b600080604083850312156122a857600080fd5b60006122b6858286016120d3565b92505060206122c7858286016120e8565b9150509250929050565b600080604083850312156122e457600080fd5b60006122f2858286016120d3565b925050602061230385828601612151565b9150509250929050565b60006020828403121561231f57600080fd5b600061232d848285016120fd565b91505092915050565b60006020828403121561234857600080fd5b600061235684828501612112565b91505092915050565b60006020828403121561237157600080fd5b600061237f84828501612151565b91505092915050565b61239181613334565b82525050565b6123a081613346565b82525050565b60006123b1826131dc565b6123bb81856131f2565b93506123cb8185602086016133b7565b6123d481613552565b840191505092915050565b60006123ea826131e7565b6123f48185613203565b93506124048185602086016133b7565b61240d81613552565b840191505092915050565b6000612423826131e7565b61242d8185613214565b935061243d8185602086016133b7565b80840191505092915050565b60008154612456816133ea565b6124608186613214565b9450600182166000811461247b576001811461248c576124bf565b60ff198316865281860193506124bf565b612495856131c7565b60005b838110156124b757815481890152600182019150602081019050612498565b838801955050505b50505092915050565b60006124d5600b83613214565b91507f52414e444f4d5f574f52440000000000000000000000000000000000000000006000830152600b82019050919050565b6000612515603283613203565b91507f4552433732313a207472616e7366657220746f206e6f6e20455243373231526560008301527f63656976657220696d706c656d656e74657200000000000000000000000000006020830152604082019050919050565b600061257b601c83613203565b91507f4552433732313a20746f6b656e20616c7265616479206d696e746564000000006000830152602082019050919050565b60006125bb602483613203565b91507f4552433732313a207472616e7366657220746f20746865207a65726f2061646460008301527f72657373000000000000000000000000000000000000000000000000000000006020830152604082019050919050565b6000612621601983613203565b91507f4552433732313a20617070726f766520746f2063616c6c6572000000000000006000830152602082019050919050565b6000612661602c83613203565b91507f4552433732313a206f70657261746f7220717565727920666f72206e6f6e657860008301527f697374656e7420746f6b656e00000000000000000000000000000000000000006020830152604082019050919050565b60006126c7600d83613214565b91507f3c2f746578743e3c2f7376673e000000000000000000000000000000000000006000830152600d82019050919050565b6000612707603883613203565b91507f4552433732313a20617070726f76652063616c6c6572206973206e6f74206f7760008301527f6e6572206e6f7220617070726f76656420666f7220616c6c00000000000000006020830152604082019050919050565b600061276d602a83613203565b91507f4552433732313a2062616c616e636520717565727920666f7220746865207a6560008301527f726f2061646472657373000000000000000000000000000000000000000000006020830152604082019050919050565b60006127d3602983613203565b91507f4552433732313a206f776e657220717565727920666f72206e6f6e657869737460008301527f656e7420746f6b656e00000000000000000000000000000000000000000000006020830152604082019050919050565b6000612839602e83613203565b91507f45524337323155524953746f726167653a2055524920736574206f66206e6f6e60008301527f6578697374656e7420746f6b656e0000000000000000000000000000000000006020830152604082019050919050565b600061289f600283613214565b91507f227d0000000000000000000000000000000000000000000000000000000000006000830152600282019050919050565b60006128df602083613203565b91507f4552433732313a206d696e7420746f20746865207a65726f20616464726573736000830152602082019050919050565b600061291f603183613203565b91507f45524337323155524953746f726167653a2055524920717565727920666f722060008301527f6e6f6e6578697374656e7420746f6b656e0000000000000000000000000000006020830152604082019050919050565b6000612985602c83613203565b91507f4552433732313a20617070726f76656420717565727920666f72206e6f6e657860008301527f697374656e7420746f6b656e00000000000000000000000000000000000000006020830152604082019050919050565b60006129eb602983613203565b91507f4552433732313a207472616e73666572206f6620746f6b656e2074686174206960008301527f73206e6f74206f776e00000000000000000000000000000000000000000000006020830152604082019050919050565b6000612a51602f83613203565b91507f4552433732314d657461646174613a2055524920717565727920666f72206e6f60008301527f6e6578697374656e7420746f6b656e00000000000000000000000000000000006020830152604082019050919050565b6000612ab7600a83613214565b91507f7b226e616d65223a2022000000000000000000000000000000000000000000006000830152600a82019050919050565b6000612af7602183613203565b91507f4552433732313a20617070726f76616c20746f2063757272656e74206f776e6560008301527f72000000000000000000000000000000000000000000000000000000000000006020830152604082019050919050565b6000612b5d601d83613214565b91507f646174613a6170706c69636174696f6e2f6a736f6e3b6261736536342c0000006000830152601d82019050919050565b6000612b9d603183613203565b91507f4552433732313a207472616e736665722063616c6c6572206973206e6f74206f60008301527f776e6572206e6f7220617070726f7665640000000000000000000000000000006020830152604082019050919050565b6000612c03606d83613214565b91507f222c20226465736372697074696f6e223a202248652073686f6f742c2068652060008301527f737072696e742c20627574206d6f737420696d706f7274616e746c792c20686560208301527f2073636f7265222c2022696d616765223a2022646174613a696d6167652f737660408301527f672b786d6c3b6261736536342c000000000000000000000000000000000000006060830152606d82019050919050565b612cb18161339e565b82525050565b6000612cc38284612418565b915081905092915050565b6000612cda8285612418565b9150612ce68284612418565b91508190509392505050565b6000612cfe8287612449565b9150612d0a8286612418565b9150612d168285612449565b9150612d228284612418565b9150612d2d826126ba565b915081905095945050505050565b6000612d46826124c8565b9150612d528284612418565b915081905092915050565b6000612d6882612aaa565b9150612d748285612418565b9150612d7f82612bf6565b9150612d8b8284612418565b9150612d9682612892565b91508190509392505050565b6000612dad82612b50565b9150612db98284612418565b915081905092915050565b6000602082019050612dd96000830184612388565b92915050565b6000608082019050612df46000830187612388565b612e016020830186612388565b612e0e6040830185612ca8565b8181036060830152612e2081846123a6565b905095945050505050565b6000606082019050612e406000830186612388565b612e4d6020830185612ca8565b612e5a6040830184612ca8565b949350505050565b6000602082019050612e776000830184612397565b92915050565b60006020820190508181036000830152612e9781846123df565b905092915050565b60006040820190508181036000830152612eb981856123df565b90508181036020830152612ecd81846123df565b90509392505050565b60006080820190508181036000830152612ef081876123df565b9050612eff6020830186612ca8565b612f0c6040830185612388565b612f196060830184612ca8565b95945050505050565b60006020820190508181036000830152612f3b81612508565b9050919050565b60006020820190508181036000830152612f5b8161256e565b9050919050565b60006020820190508181036000830152612f7b816125ae565b9050919050565b60006020820190508181036000830152612f9b81612614565b9050919050565b60006020820190508181036000830152612fbb81612654565b9050919050565b60006020820190508181036000830152612fdb816126fa565b9050919050565b60006020820190508181036000830152612ffb81612760565b9050919050565b6000602082019050818103600083015261301b816127c6565b9050919050565b6000602082019050818103600083015261303b8161282c565b9050919050565b6000602082019050818103600083015261305b816128d2565b9050919050565b6000602082019050818103600083015261307b81612912565b9050919050565b6000602082019050818103600083015261309b81612978565b9050919050565b600060208201905081810360008301526130bb816129de565b9050919050565b600060208201905081810360008301526130db81612a44565b9050919050565b600060208201905081810360008301526130fb81612aea565b9050919050565b6000602082019050818103600083015261311b81612b90565b9050919050565b60006020820190506131376000830184612ca8565b92915050565b60006040820190506131526000830185612ca8565b61315f6020830184612ca8565b9392505050565b6000604051905081810181811067ffffffffffffffff8211171561318d5761318c613523565b5b8060405250919050565b600067ffffffffffffffff8211156131b2576131b1613523565b5b601f19601f8301169050602081019050919050565b60008190508160005260206000209050919050565b600081519050919050565b600081519050919050565b600082825260208201905092915050565b600082825260208201905092915050565b600081905092915050565b600061322a8261339e565b91506132358361339e565b9250827fffffffffffffffffffffffffffffffffffffffffffffffffffffffffffffffff0382111561326a57613269613496565b5b828201905092915050565b60006132808261339e565b915061328b8361339e565b92508261329b5761329a6134c5565b5b828204905092915050565b60006132b18261339e565b91506132bc8361339e565b9250817fffffffffffffffffffffffffffffffffffffffffffffffffffffffffffffffff04831182151516156132f5576132f4613496565b5b828202905092915050565b600061330b8261339e565b91506133168361339e565b92508282101561332957613328613496565b5b828203905092915050565b600061333f8261337e565b9050919050565b60008115159050919050565b60007fffffffff0000000000000000000000000000000000000000000000000000000082169050919050565b600073ffffffffffffffffffffffffffffffffffffffff82169050919050565b6000819050919050565b82818337600083830152505050565b60005b838110156133d55780820151818401526020810190506133ba565b838111156133e4576000848401525b50505050565b6000600282049050600182168061340257607f821691505b60208210811415613416576134156134f4565b5b50919050565b60006134278261339e565b91507fffffffffffffffffffffffffffffffffffffffffffffffffffffffffffffffff82141561345a57613459613496565b5b600182019050919050565b60006134708261339e565b915061347b8361339e565b92508261348b5761348a6134c5565b5b828206905092915050565b7f4e487b7100000000000000000000000000000000000000000000000000000000600052601160045260246000fd5b7f4e487b7100000000000000000000000000000000000000000000000000000000600052601260045260246000fd5b7f4e487b7100000000000000000000000000000000000000000000000000000000600052602260045260246000fd5b7f4e487b7100000000000000000000000000000000000000000000000000000000600052604160045260246000fd5b6000601f19601f8301169050919050565b61356c81613334565b811461357757600080fd5b50565b61358381613346565b811461358e57600080fd5b50565b61359a81613352565b81146135a557600080fd5b50565b6135b18161339e565b81146135bc57600080fd5b5056fe4142434445464748494a4b4c4d4e4f505152535455565758595a6162636465666768696a6b6c6d6e6f707172737475767778797a303132333435363738392b2f416e204e465420772f20494420257320686173206265656e206d696e74656420746f2025732e20546f74616c206d696e7465643a202573a2646970667358221220a817869b5ac8d8ee154b459f2df581f59dbf01d04dbf9775799efeb3ef27e6b564736f6c634300080000333c73766720786d6c6e733d27687474703a2f2f7777772e77332e6f72672f323030302f73766727207072657365727665417370656374526174696f3d27784d696e594d696e206d656574272076696577426f783d273020302033353020333530273e3c7374796c653e2e62617365207b2066696c6c3a2077686974653b20666f6e742d66616d696c793a2073657269663b20666f6e742d73697a653a20323470783b207d3c2f7374796c653e3c726563742077696474683d273130302527206865696768743d2731303025272066696c6c3d27272f3e3c7465787420783d273530252720793d273530252720636c6173733d27626173652720646f6d696e616e742d626173656c696e653d276d6964646c652720746578742d616e63686f723d276d6964646c65273e",
  "linkReferences": {},
  "deployedLinkReferences": {}
}